:0300000002017684
:0C017600787FE4F6D8FD7581090201BD18
:0E033800E5BB20E7030080F890E6F1EFF0222D
:1002A00090E0AE7401F0A374F8F0A37400F07F0046
:1002B0007E0290E0AEE0FBA3E0FAA3E0F974AA129C
:1002C000021B90E0AFE475F00112022DEF1F7001E8
:0E02D0001EEF4E70DD90E614E054FC4403F087
:0102DE0022FD
:0F03290090E69074FFF0000000A3F000000022A7
:040346000000002291
:1003130090F800E508F0A3E509F00090E698740270
:06032300F000E4A3F0224B
:1002DF00E4F508F50990E6007410F00090E6047458
:1002EF0080F000E4F0007402F0007404F000740673
:1002FF00F0007408F000E4F01202A01203131203CE
:04030F004602032976
:100259001200031202DF90E6A3E020E2F990E0AB7E
:100269007401F0A374F0F0A37400F0E4FDFC90E0D5
:10027900ABE0FBA3E475F001120243A9F0FA120204
:1002890002FF1203380DBD00010CE4B505E0ECB422
:0702990002DC12032980BF03
:1000BF006080E00001010101010101070000000063
:1000CF000000000001010101010101030000000017
:1000DF000000003F010101010101010701020202BD
:1000EF0002020200030202020202020300000000E9
:1000FF000000003F010101010101010700000000A4
:10010F0000000000030303030303030300000000C8
:10011F000000003F01010101010101070000000083
:10012F0000000000030303030303030300000000A8
:10013F000000003F6024E087000000000000000086
:10014F0000000000000000000000000000000000A0
:10015F0000000000000000000000000047E080E009
:06016F00100003664E00C3
:1000030090E6017466F090E6F574FFF090E080E00E
:1000130090E6F3F090E081E090E6C3F090E082E0B8
:1000230090E6C1F090E083E090E6C2F090E085E0D6
:1000330090E6C0F090E086E090E6F4F075AF0774C8
:10004300E0F59A7400F59B759DE4E4F59EFF90E658
:100053007BE090E67CF00FBF80F490E67174FFF0D4
:10006300F5B490E672E04480F043B680000000E40B
:1000730090E6C4F000000090E6C5F090E087E090C1
:10008300E6C6F090E088E090E6C7F090E089E09063
:10009300E6C8F090E08AE090E6C9F090E08BE0904B
:1000A300E6CAF090E08CE090E6CBF090E08DE09033
:0B00B300E6CCF090E08EE090E6CDF08F
:0100BE00221F
:10018200020259E493A3F8E493A34003F68001F238
:1001920008DFF48029E493A3F85407240CC8C3337E
:1001A200C4540F4420C8834004F456800146F6DF4D
:1001B200E4800B01020408102040809000BFE47E1E
:1001C200019360BCA3FF543F30E509541FFEE49342
:1001D200A360010ECF54C025E060A840B8E493A309
:1001E200FAE493A3F8E493A3C8C582C8CAC583CA34
:1001F200F0A3C8C582C8CAC583CADFE9DEE780BEEC
:010175000089
:10020200BB010689828A83E0225002E722BBFE02FA
:09021200E32289828A83E493222D
:10021B00BB010689828A83F0225002F722BBFE01C2
:02022B00F322BC
:10022D00C5F0F8A3E028F0C5F0F8E582158270025C
:06023D001583E038F022F9
:10024300A3F8E0C5F025F0F0E5821582700215836E
:06025300E0C838F0E822CB
:00000001FF
